{"abi":[{"type":"receive","stateMutability":"payable"},{"type":"function","name":"DEFAULT_ADMIN_ROLE","inputs":[],"outputs":[{"name":"","type":"bytes32","internalType":"bytes32"}],"stateMutability":"view"},{"type":"function","name":"claimAllTokens","inputs":[],"outputs":[],"stateMutability":"nonpayable"},{"type":"function","name":"claimToken","inputs":[{"name":"tokenAddress","type":"address","internalType":"address"}],"outputs":[],"stateMutability":"nonpayable"},{"type":"function","name":"depositERC20","inputs":[{"name":"tokenAddress","type":"address","internalType":"contract IERC20"},{"name":"amount","type":"uint256","internalType":"uint256"}],"outputs":[{"name":"","type":"bool","internalType":"bool"}],"stateMutability":"nonpayable"},{"type":"function","name":"depositETH","inputs":[],"outputs":[{"name":"","type":"bool","internalType":"bool"}],"stateMutability":"payable"},{"type":"function","name":"ethAddress","inputs":[],"outputs":[{"name":"","type":"address","internalType":"address"}],"stateMutability":"view"},{"type":"function","name":"getRoleAdmin","inputs":[{"name":"role","type":"bytes32","internalType":"bytes32"}],"outputs":[{"name":"","type":"bytes32","internalType":"bytes32"}],"stateMutability":"view"},{"type":"function","name":"getTokenWhiteList","inputs":[],"outputs":[{"name":"","type":"address[]","internalType":"address[]"}],"stateMutability":"view"},{"type":"function","name":"grantRewards","inputs":[{"name":"tokenAddress","type":"address","internalType":"address"},{"name":"granter","type":"address","internalType":"address"},{"name":"amount","type":"uint256","internalType":"uint256"}],"outputs":[],"stateMutability":"nonpayable"},{"type":"function","name":"grantRole","inputs":[{"name":"role","type":"bytes32","internalType":"bytes32"},{"name":"account","type":"address","internalType":"address"}],"outputs":[],"stateMutability":"nonpayable"},{"type":"function","name":"hasRole","inputs":[{"name":"role","type":"bytes32","internalType":"bytes32"},{"name":"account","type":"address","internalType":"address"}],"outputs":[{"name":"","type":"bool","internalType":"bool"}],"stateMutability":"view"},{"type":"function","name":"initialize","inputs":[{"name":"_initialOwner","type":"address","internalType":"address"},{"name":"_treasureManager","type":"address","internalType":"address"},{"name":"_withdrawManager","type":"address","internalType":"address"}],"outputs":[],"stateMutability":"nonpayable"},{"type":"function","name":"owner","inputs":[],"outputs":[{"name":"","type":"address","internalType":"address"}],"stateMutability":"view"},{"type":"function","name":"queryReward","inputs":[{"name":"_tokenAddress","type":"address","internalType":"address"}],"outputs":[{"name":"","type":"uint256","internalType":"uint256"}],"stateMutability":"view"},{"type":"function","name":"renounceOwnership","inputs":[],"outputs":[],"stateMutability":"nonpayable"},{"type":"function","name":"renounceRole","inputs":[{"name":"role","type":"bytes32","internalType":"bytes32"},{"name":"callerConfirmation","type":"address","internalType":"address"}],"outputs":[],"stateMutability":"nonpayable"},{"type":"function","name":"revokeRole","inputs":[{"name":"role","type":"bytes32","internalType":"bytes32"},{"name":"account","type":"address","internalType":"address"}],"outputs":[],"stateMutability":"nonpayable"},{"type":"function","name":"setTokenWhiteList","inputs":[{"name":"tokenAddress","type":"address","internalType":"address"}],"outputs":[],"stateMutability":"nonpayable"},{"type":"function","name":"setWithdrawManager","inputs":[{"name":"_withdrawManager","type":"address","internalType":"address"}],"outputs":[],"stateMutability":"nonpayable"},{"type":"function","name":"supportsInterface","inputs":[{"name":"interfaceId","type":"bytes4","internalType":"bytes4"}],"outputs":[{"name":"","type":"bool","internalType":"bool"}],"stateMutability":"view"},{"type":"function","name":"tokenBalances","inputs":[{"name":"","type":"address","internalType":"address"}],"outputs":[{"name":"","type":"uint256","internalType":"uint256"}],"stateMutability":"view"},{"type":"function","name":"tokenWhiteList","inputs":[{"name":"","type":"uint256","internalType":"uint256"}],"outputs":[{"name":"","type":"address","internalType":"address"}],"stateMutability":"view"},{"type":"function","name":"transferOwnership","inputs":[{"name":"newOwner","type":"address","internalType":"address"}],"outputs":[],"stateMutability":"nonpayable"},{"type":"function","name":"treasureManager","inputs":[],"outputs":[{"name":"","type":"address","internalType":"address"}],"stateMutability":"view"},{"type":"function","name":"userRewardAmounts","inputs":[{"name":"","type":"address","internalType":"address"},{"name":"","type":"address","internalType":"address"}],"outputs":[{"name":"","type":"uint256","internalType":"uint256"}],"stateMutability":"view"},{"type":"function","name":"withdrawERC20","inputs":[{"name":"tokenAddress","type":"address","internalType":"contract IERC20"},{"name":"withdrawAddress","type":"address","internalType":"address"},{"name":"amount","type":"uint256","internalType":"uint256"}],"outputs":[{"name":"","type":"bool","internalType":"bool"}],"stateMutability":"nonpayable"},{"type":"function","name":"withdrawETH","inputs":[{"name":"withdrawAddress","type":"address","internalType":"address payable"},{"name":"amount","type":"uint256","internalType":"uint256"}],"outputs":[{"name":"","type":"bool","internalType":"bool"}],"stateMutability":"payable"},{"type":"function","name":"withdrawManager","inputs":[],"outputs":[{"name":"","type":"address","internalType":"address"}],"stateMutability":"view"},{"type":"event","name":"DepositToken","inputs":[{"name":"tokenAddress","type":"address","indexed":true,"internalType":"address"},{"name":"sender","type":"address","indexed":true,"internalType":"address"},{"name":"amount","type":"uint256","indexed":false,"internalType":"uint256"}],"anonymous":false},{"type":"event","name":"GrantRewardTokenAmount","inputs":[{"name":"tokenAddress","type":"address","indexed":true,"internalType":"address"},{"name":"granter","type":"address","indexed":false,"internalType":"address"},{"name":"amount","type":"uint256","indexed":false,"internalType":"uint256"}],"anonymous":false},{"type":"event","name":"Initialized","inputs":[{"name":"version","type":"uint64","indexed":false,"internalType":"uint64"}],"anonymous":false},{"type":"event","name":"OwnershipTransferred","inputs":[{"name":"previousOwner","type":"address","indexed":true,"internalType":"address"},{"name":"newOwner","type":"address","indexed":true,"internalType":"address"}],"anonymous":false},{"type":"event","name":"RoleAdminChanged","inputs":[{"name":"role","type":"bytes32","indexed":true,"internalType":"bytes32"},{"name":"previousAdminRole","type":"bytes32","indexed":true,"internalType":"bytes32"},{"name":"newAdminRole","type":"bytes32","indexed":true,"internalType":"bytes32"}],"anonymous":false},{"type":"event","name":"RoleGranted","inputs":[{"name":"role","type":"bytes32","indexed":true,"internalType":"bytes32"},{"name":"account","type":"address","indexed":true,"internalType":"address"},{"name":"sender","type":"address","indexed":true,"internalType":"address"}],"anonymous":false},{"type":"event","name":"RoleRevoked","inputs":[{"name":"role","type":"bytes32","indexed":true,"internalType":"bytes32"},{"name":"account","type":"address","indexed":true,"internalType":"address"},{"name":"sender","type":"address","indexed":true,"internalType":"address"}],"anonymous":false},{"type":"event","name":"WithdrawManagerUpdate","inputs":[{"name":"withdrawManager","type":"address","indexed":true,"internalType":"address"}],"anonymous":false},{"type":"event","name":"WithdrawToken","inputs":[{"name":"tokenAddress","type":"address","indexed":true,"internalType":"address"},{"name":"sender","type":"address","indexed":false,"internalType":"address"},{"name":"withdrawAddress","type":"address","indexed":false,"internalType":"address"},{"name":"amount","type":"uint256","indexed":false,"internalType":"uint256"}],"anonymous":false},{"type":"error","name":"AccessControlBadConfirmation","inputs":[]},{"type":"error","name":"AccessControlUnauthorizedAccount","inputs":[{"name":"account","type":"address","internalType":"address"},{"name":"neededRole","type":"bytes32","internalType":"bytes32"}]},{"type":"error","name":"AddressEmptyCode","inputs":[{"name":"target","type":"address","internalType":"address"}]},{"type":"error","name":"AddressInsufficientBalance","inputs":[{"name":"account","type":"address","internalType":"address"}]},{"type":"error","name":"FailedInnerCall","inputs":[]},{"type":"error","name":"InvalidInitialization","inputs":[]},{"type":"error","name":"IsZeroAddress","inputs":[]},{"type":"error","name":"NotInitializing","inputs":[]},{"type":"error","name":"OwnableInvalidOwner","inputs":[{"name":"owner","type":"address","internalType":"address"}]},{"type":"error","name":"OwnableUnauthorizedAccount","inputs":[{"name":"account","type":"address","internalType":"address"}]},{"type":"error","name":"ReentrancyGuardReentrantCall","inputs":[]},{"type":"error","name":"SafeERC20FailedOperation","inputs":[{"name":"token","type":"address","internalType":"address"}]}],"bytecode":{"object":"0x608060405234801561001057600080fd5b50611a5f806100206000396000f3fe6080604052600436106101bb5760003560e01c80634782f779116100ec578063a2672ad71161008a578063d547741f11610064578063d547741f1461054b578063ec3e9da51461056b578063f2fde38b1461058b578063f6326fb3146105ab57600080fd5b8063a2672ad7146104c8578063c0c53b8b146104e8578063c37220ea1461050857600080fd5b80638da5cb5b116100c65780638da5cb5b1461043657806391d148541461047357806397feb92614610493578063a217fddf146104b357600080fd5b80634782f779146103e1578063523fba7f146103f4578063715018a61461042157600080fd5b8063254c5d871161015957806336568abe1161013357806336568abe14610359578063410c9f9a1461037957806341398b151461039957806344004cc1146103c157600080fd5b8063254c5d87146102e15780632f2ff15d1461031957806332f289cf1461033957600080fd5b806317e3e2e81161019557806317e3e2e81461025c5780631e4bd42c1461027c57806323ecdbee14610291578063248a9ca3146102b357600080fd5b806301ffc9a7146101cf57806303186d22146102045780630ec08b001461023c57600080fd5b366101ca576101c86105af565b005b600080fd5b3480156101db57600080fd5b506101ef6101ea36600461174b565b610688565b60405190151581526020015b60405180910390f35b34801561021057600080fd5b50600054610224906001600160a01b031681565b6040516001600160a01b0390911681526020016101fb565b34801561024857600080fd5b50610224610257366004611775565b6106bf565b34801561026857600080fd5b506101c86102773660046117a3565b6106e9565b34801561028857600080fd5b506101c861073b565b34801561029d57600080fd5b506102a66108b7565b6040516101fb91906117c0565b3480156102bf57600080fd5b506102d36102ce366004611775565b610919565b6040519081526020016101fb565b3480156102ed57600080fd5b506102d36102fc36600461180d565b600460209081526000928352604080842090915290825290205481565b34801561032557600080fd5b506101c8610334366004611846565b61093b565b34801561034557600080fd5b506101c86103543660046117a3565b61095d565b34801561036557600080fd5b506101c8610374366004611846565b610b25565b34801561038557600080fd5b506101c861039436600461186b565b610b5d565b3480156103a557600080fd5b5061022473eeeeeeeeeeeeeeeeeeeeeeeeeeeeeeeeeeeeeeee81565b3480156103cd57600080fd5b506101ef6103dc36600461186b565b610c6c565b6101ef6103ef3660046118ac565b610dda565b34801561040057600080fd5b506102d361040f3660046117a3565b60036020526000908152604090205481565b34801561042d57600080fd5b506101c8610fb6565b34801561044257600080fd5b507f9016d09d72d40fdae2fd8ceac6b6234c7706214fd39c1cd1e609a0528c199300546001600160a01b0316610224565b34801561047f57600080fd5b506101ef61048e366004611846565b610fca565b34801561049f57600080fd5b506101ef6104ae3660046118ac565b611002565b3480156104bf57600080fd5b506102d3600081565b3480156104d457600080fd5b506101c86104e33660046117a3565b61108f565b3480156104f457600080fd5b506101c86105033660046118d8565b611132565b34801561051457600080fd5b506102d36105233660046117a3565b3360009081526004602090815260408083206001600160a01b03949094168352929052205490565b34801561055757600080fd5b506101c8610566366004611846565b611274565b34801561057757600080fd5b50600154610224906001600160a01b031681565b34801561059757600080fd5b506101c86105a63660046117a3565b611290565b6101ef5b60006105b96112cb565b73eeeeeeeeeeeeeeeeeeeeeeeeeeeeeeeeeeeeeeee600090815260036020527f40c35f83c179e47de306c9fe55fdc60064f11dd52adb51ab61b5643ee626f98d8054349290610609908490611939565b9091555050604051348152339073eeeeeeeeeeeeeeeeeeeeeeeeeeeeeeeeeeeeeeee907f4b3f81827ede20c81afbf1bb77b954afcdcae24d391d99042310cb1d9210dd579060200160405180910390a350600161068560017f9b779b17422d0df92223018b32b4d1fa46e071723d6817e2486d003becc55f0055565b90565b60006001600160e01b03198216637965db0b60e01b14806106b957506301ffc9a760e01b6001600160e01b03198316145b92915050565b600281815481106106cf57600080fd5b6000918252602090912001546001600160a01b0316905081565b6106f1611315565b600180546001600160a01b0319166001600160a01b0383169081179091556040517f799e16a314d482c87bc47fd219011aaf33f4f9c7e302be5d7a0af286a52998b990600090a250565b60005b6002548110156108b45760006002828154811061075d5761075d61194c565b60009182526020808320909101543383526004825260408084206001600160a01b039092168085529190925291205490915080156108aa5773eeeeeeeeeeeeeeeeeeeeeeeeeeeeeeeeeeeeeeed196001600160a01b0383160161085357604051600090339083908381818185875af1925050503d80600081146107fc576040519150601f19603f3d011682016040523d82523d6000602084013e610801565b606091505b505090508061084d5760405162461bcd60e51b8152602060048201526013602482015272115512081d1c985b9cd9995c8819985a5b1959606a1b60448201526064015b60405180910390fd5b50610867565b6108676001600160a01b0383163383611370565b3360009081526004602090815260408083206001600160a01b038616845282528083208390556003909152812080548392906108a4908490611962565b90915550505b505060010161073e565b50565b6060600280548060200260200160405190810160405280929190818152602001828054801561090f57602002820191906000526020600020905b81546001600160a01b031681526001909101906020018083116108f1575b5050505050905090565b6000908152600080516020611a0a833981519152602052604090206001015490565b61094482610919565b61094d816113cf565b61095783836113d9565b50505050565b6001600160a01b0381166109ab5760405162461bcd60e51b8152602060048201526015602482015274496e76616c696420746f6b656e206164647265737360581b6044820152606401610844565b3360009081526004602090815260408083206001600160a01b038516845290915290205480610a125760405162461bcd60e51b81526020600482015260136024820152724e6f2072657761726420617661696c61626c6560681b6044820152606401610844565b73eeeeeeeeeeeeeeeeeeeeeeeeeeeeeeeeeeeeeeed196001600160a01b03831601610acb57604051600090339083908381818185875af1925050503d8060008114610a79576040519150601f19603f3d011682016040523d82523d6000602084013e610a7e565b606091505b5050905080610ac55760405162461bcd60e51b8152602060048201526013602482015272115512081d1c985b9cd9995c8819985a5b1959606a1b6044820152606401610844565b50610adf565b610adf6001600160a01b0383163383611370565b3360009081526004602090815260408083206001600160a01b03861684528252808320839055600390915281208054839290610b1c908490611962565b90915550505050565b6001600160a01b0381163314610b4e5760405163334bd91960e11b815260040160405180910390fd5b610b58828261147e565b505050565b6000546001600160a01b03163314610b875760405162461bcd60e51b815260040161084490611975565b6001600160a01b03831615801590610ba757506001600160a01b03821615155b610be55760405162461bcd60e51b815260206004820152600f60248201526e496e76616c6964206164647265737360881b6044820152606401610844565b6001600160a01b03808316600090815260046020908152604080832093871683529290529081208054839290610c1c908490611939565b9091555050604080516001600160a01b038481168252602082018490528516917f10621458f3ad2a9cfcb87c216122570629e44079d6af4d717035eb55d2c60424910160405180910390a2505050565b6001546000906001600160a01b03163314610cc95760405162461bcd60e51b815260206004820152601e60248201527f54726561737572654d616e616765722e6f6e6c795769746864726177657200006044820152606401610844565b6001600160a01b038416600090815260036020526040902054821115610d405760405162461bcd60e51b815260206004820152602660248201527f496e73756666696369656e7420746f6b656e2062616c616e636520696e20636f6044820152651b9d1c9858dd60d21b6064820152608401610844565b610d546001600160a01b0385168484611370565b6001600160a01b03841660009081526003602052604081208054849290610d7c908490611962565b9091555050604080513381526001600160a01b038581166020830152918101849052908516907f9ca7c1e047552a8048d924a5a8d3c150eb861086a72a9100e5f19d1176c1b7469060600160405180910390a25060015b9392505050565b6001546000906001600160a01b03163314610e375760405162461bcd60e51b815260206004820152601e60248201527f54726561737572654d616e616765722e6f6e6c795769746864726177657200006044820152606401610844565b81471015610e935760405162461bcd60e51b8152602060048201526024808201527f496e73756666696369656e74204554482062616c616e636520696e20636f6e746044820152631c9858dd60e21b6064820152608401610844565b6000836001600160a01b03168360405160006040518083038185875af1925050503d8060008114610ee0576040519150601f19603f3d011682016040523d82523d6000602084013e610ee5565b606091505b5050905080610ef85760009150506106b9565b73eeeeeeeeeeeeeeeeeeeeeeeeeeeeeeeeeeeeeeee600090815260036020527f40c35f83c179e47de306c9fe55fdc60064f11dd52adb51ab61b5643ee626f98d8054859290610f48908490611962565b9091555050604080513381526001600160a01b038616602082015290810184905273eeeeeeeeeeeeeeeeeeeeeeeeeeeeeeeeeeeeeeee907f9ca7c1e047552a8048d924a5a8d3c150eb861086a72a9100e5f19d1176c1b7469060600160405180910390a25060019392505050565b610fbe611315565b610fc860006114fa565b565b6000918252600080516020611a0a833981519152602090815260408084206001600160a01b0393909316845291905290205460ff1690565b60006110196001600160a01b03841633308561156b565b6001600160a01b03831660009081526003602052604081208054849290611041908490611939565b909155505060405182815233906001600160a01b038516907f4b3f81827ede20c81afbf1bb77b954afcdcae24d391d99042310cb1d9210dd579060200160405180910390a350600192915050565b6000546001600160a01b031633146110b95760405162461bcd60e51b815260040161084490611975565b6001600160a01b0381166110e057604051631326d6d560e01b815260040160405180910390fd5b600280546001810182556000919091527f405787fa12a823e0f2b7631cc41b3ba8828b3321ca811111fa75cd3aa3bb5ace0180546001600160a01b0319166001600160a01b0392909216919091179055565b7ff0c57e16840df040f15088dc2f81fe391c3923bec73e23a9662efc9c229c6a008054600160401b810460ff16159067ffffffffffffffff166000811580156111785750825b905060008267ffffffffffffffff1660011480156111955750303b155b9050811580156111a3575080155b156111c15760405163f92ee8a960e01b815260040160405180910390fd5b845467ffffffffffffffff1916600117855583156111eb57845460ff60401b1916600160401b1785555b600080546001600160a01b03808a166001600160a01b0319928316179092556001805492891692909116919091179055611224886114fa565b831561126a57845460ff60401b19168555604051600181527fc7f505b2f371ae2175ee4913f4499e1f2633a7b5936321eed1cdaeb6115181d29060200160405180910390a15b5050505050505050565b61127d82610919565b611286816113cf565b610957838361147e565b611298611315565b6001600160a01b0381166112c257604051631e4fbdf760e01b815260006004820152602401610844565b6108b4816114fa565b7f9b779b17422d0df92223018b32b4d1fa46e071723d6817e2486d003becc55f0080546001190161130f57604051633ee5aeb560e01b815260040160405180910390fd5b60029055565b336113477f9016d09d72d40fdae2fd8ceac6b6234c7706214fd39c1cd1e609a0528c199300546001600160a01b031690565b6001600160a01b031614610fc85760405163118cdaa760e01b8152336004820152602401610844565b6040516001600160a01b03838116602483015260448201839052610b5891859182169063a9059cbb906064015b604051602081830303815290604052915060e01b6020820180516001600160e01b0383818316178352505050506115a4565b6108b48133611607565b6000600080516020611a0a8339815191526113f48484610fca565b611474576000848152602082815260408083206001600160a01b03871684529091529020805460ff1916600117905561142a3390565b6001600160a01b0316836001600160a01b0316857f2f8788117e7eff1d82e926ec794901d17c78024a50270940304540a733656f0d60405160405180910390a460019150506106b9565b60009150506106b9565b6000600080516020611a0a8339815191526114998484610fca565b15611474576000848152602082815260408083206001600160a01b0387168085529252808320805460ff1916905551339287917ff6391f5c32d9c69d2a47ea670b442974b53935d1edc7fd64eb21e047a839171b9190a460019150506106b9565b7f9016d09d72d40fdae2fd8ceac6b6234c7706214fd39c1cd1e609a0528c19930080546001600160a01b031981166001600160a01b03848116918217845560405192169182907f8be0079c531659141344cd1fd0a4f28419497f9722a3daafe3b4186f6b6457e090600090a3505050565b6040516001600160a01b0384811660248301528381166044830152606482018390526109579186918216906323b872dd9060840161139d565b60006115b96001600160a01b03841683611644565b905080516000141580156115de5750808060200190518101906115dc91906119b8565b155b15610b5857604051635274afe760e01b81526001600160a01b0384166004820152602401610844565b6116118282610fca565b6116405760405163e2517d3f60e01b81526001600160a01b038216600482015260248101839052604401610844565b5050565b6060610dd38383600084600080856001600160a01b0316848660405161166a91906119da565b60006040518083038185875af1925050503d80600081146116a7576040519150601f19603f3d011682016040523d82523d6000602084013e6116ac565b606091505b50915091506116bc8683836116c6565b9695505050505050565b6060826116db576116d682611722565b610dd3565b81511580156116f257506001600160a01b0384163b155b1561171b57604051639996b31560e01b81526001600160a01b0385166004820152602401610844565b5080610dd3565b8051156117325780518082602001fd5b604051630a12f52160e11b815260040160405180910390fd5b60006020828403121561175d57600080fd5b81356001600160e01b031981168114610dd357600080fd5b60006020828403121561178757600080fd5b5035919050565b6001600160a01b03811681146108b457600080fd5b6000602082840312156117b557600080fd5b8135610dd38161178e565b6020808252825182820181905260009190848201906040850190845b818110156118015783516001600160a01b0316835292840192918401916001016117dc565b50909695505050505050565b6000806040838503121561182057600080fd5b823561182b8161178e565b9150602083013561183b8161178e565b809150509250929050565b6000806040838503121561185957600080fd5b82359150602083013561183b8161178e565b60008060006060848603121561188057600080fd5b833561188b8161178e565b9250602084013561189b8161178e565b929592945050506040919091013590565b600080604083850312156118bf57600080fd5b82356118ca8161178e565b946020939093013593505050565b6000806000606084860312156118ed57600080fd5b83356118f88161178e565b925060208401356119088161178e565b915060408401356119188161178e565b809150509250925092565b634e487b7160e01b600052601160045260246000fd5b808201808211156106b9576106b9611923565b634e487b7160e01b600052603260045260246000fd5b818103818111156106b9576106b9611923565b60208082526023908201527f54726561737572654d616e616765722e6f6e6c7954726561737572654d616e6160408201526233b2b960e91b606082015260800190565b6000602082840312156119ca57600080fd5b81518015158114610dd357600080fd5b6000825160005b818110156119fb57602081860181015185830152016119e1565b50600092019182525091905056fe02dd7bc7dec4dceedda775e58dd541e08a116c6c53815c0bd028192f7b626800a2646970667358221220941ffaefdae79fe8a3301119993fba882e88ac0cd4735753a0ce261d8d5d3a7264736f6c63430008180033","linkReferences":{}},"methodIdentifiers":{"DEFAULT_ADMIN_ROLE()":"a217fddf","claimAllTokens()":"1e4bd42c","claimToken(address)":"32f289cf","depositERC20(address,uint256)":"97feb926","depositETH()":"f6326fb3","ethAddress()":"41398b15","getRoleAdmin(bytes32)":"248a9ca3","getTokenWhiteList()":"23ecdbee","grantRewards(address,address,uint256)":"410c9f9a","grantRole(bytes32,address)":"2f2ff15d","hasRole(bytes32,address)":"91d14854","initialize(address,address,address)":"c0c53b8b","owner()":"8da5cb5b","queryReward(address)":"c37220ea","renounceOwnership()":"715018a6","renounceRole(bytes32,address)":"36568abe","revokeRole(bytes32,address)":"d547741f","setTokenWhiteList(address)":"a2672ad7","setWithdrawManager(address)":"17e3e2e8","supportsInterface(bytes4)":"01ffc9a7","tokenBalances(address)":"523fba7f","tokenWhiteList(uint256)":"0ec08b00","transferOwnership(address)":"f2fde38b","treasureManager()":"03186d22","userRewardAmounts(address,address)":"254c5d87","withdrawERC20(address,address,uint256)":"44004cc1","withdrawETH(address,uint256)":"4782f779","withdrawManager()":"ec3e9da5"},"id":53}