{"abi":[{"type":"constructor","inputs":[],"stateMutability":"nonpayable"},{"type":"receive","stateMutability":"payable"},{"type":"function","name":"DEFAULT_ADMIN_ROLE","inputs":[],"outputs":[{"name":"","type":"bytes32","internalType":"bytes32"}],"stateMutability":"view"},{"type":"function","name":"a","inputs":[],"outputs":[{"name":"","type":"uint256","internalType":"uint256"}],"stateMutability":"view"},{"type":"function","name":"claimAllTokens","inputs":[],"outputs":[],"stateMutability":"nonpayable"},{"type":"function","name":"claimToken","inputs":[{"name":"tokenAddress","type":"address","internalType":"address"}],"outputs":[],"stateMutability":"nonpayable"},{"type":"function","name":"depositERC20","inputs":[{"name":"tokenAddress","type":"address","internalType":"contract IERC20"},{"name":"amount","type":"uint256","internalType":"uint256"}],"outputs":[{"name":"","type":"bool","internalType":"bool"}],"stateMutability":"nonpayable"},{"type":"function","name":"depositETH","inputs":[],"outputs":[{"name":"","type":"bool","internalType":"bool"}],"stateMutability":"payable"},{"type":"function","name":"ethAddress","inputs":[],"outputs":[{"name":"","type":"address","internalType":"address"}],"stateMutability":"view"},{"type":"function","name":"getRoleAdmin","inputs":[{"name":"role","type":"bytes32","internalType":"bytes32"}],"outputs":[{"name":"","type":"bytes32","internalType":"bytes32"}],"stateMutability":"view"},{"type":"function","name":"getTokenWhiteList","inputs":[],"outputs":[{"name":"","type":"address[]","internalType":"address[]"}],"stateMutability":"view"},{"type":"function","name":"grantRewards","inputs":[{"name":"tokenAddress","type":"address","internalType":"address"},{"name":"granter","type":"address","internalType":"address"},{"name":"amount","type":"uint256","internalType":"uint256"}],"outputs":[],"stateMutability":"nonpayable"},{"type":"function","name":"grantRole","inputs":[{"name":"role","type":"bytes32","internalType":"bytes32"},{"name":"account","type":"address","internalType":"address"}],"outputs":[],"stateMutability":"nonpayable"},{"type":"function","name":"hasRole","inputs":[{"name":"role","type":"bytes32","internalType":"bytes32"},{"name":"account","type":"address","internalType":"address"}],"outputs":[{"name":"","type":"bool","internalType":"bool"}],"stateMutability":"view"},{"type":"function","name":"initialize","inputs":[{"name":"initialOwner","type":"address","internalType":"address"},{"name":"_treasureManager","type":"address","internalType":"address"},{"name":"_withdrawManager","type":"address","internalType":"address"}],"outputs":[],"stateMutability":"nonpayable"},{"type":"function","name":"owner","inputs":[],"outputs":[{"name":"","type":"address","internalType":"address"}],"stateMutability":"view"},{"type":"function","name":"queryReward","inputs":[{"name":"_tokenAddress","type":"address","internalType":"address"}],"outputs":[{"name":"","type":"uint256","internalType":"uint256"}],"stateMutability":"view"},{"type":"function","name":"renounceOwnership","inputs":[],"outputs":[],"stateMutability":"nonpayable"},{"type":"function","name":"renounceRole","inputs":[{"name":"role","type":"bytes32","internalType":"bytes32"},{"name":"callerConfirmation","type":"address","internalType":"address"}],"outputs":[],"stateMutability":"nonpayable"},{"type":"function","name":"revokeRole","inputs":[{"name":"role","type":"bytes32","internalType":"bytes32"},{"name":"account","type":"address","internalType":"address"}],"outputs":[],"stateMutability":"nonpayable"},{"type":"function","name":"setTokenWhiteList","inputs":[{"name":"tokenAddress","type":"address","internalType":"address"}],"outputs":[],"stateMutability":"nonpayable"},{"type":"function","name":"setWithdrawManager","inputs":[{"name":"_withdrawManager","type":"address","internalType":"address"}],"outputs":[],"stateMutability":"nonpayable"},{"type":"function","name":"supportsInterface","inputs":[{"name":"interfaceId","type":"bytes4","internalType":"bytes4"}],"outputs":[{"name":"","type":"bool","internalType":"bool"}],"stateMutability":"view"},{"type":"function","name":"tokenBalances","inputs":[{"name":"","type":"address","internalType":"address"}],"outputs":[{"name":"","type":"uint256","internalType":"uint256"}],"stateMutability":"view"},{"type":"function","name":"tokenWhiteList","inputs":[{"name":"","type":"uint256","internalType":"uint256"}],"outputs":[{"name":"","type":"address","internalType":"address"}],"stateMutability":"view"},{"type":"function","name":"transferOwnership","inputs":[{"name":"newOwner","type":"address","internalType":"address"}],"outputs":[],"stateMutability":"nonpayable"},{"type":"function","name":"treasureManager","inputs":[],"outputs":[{"name":"","type":"address","internalType":"address"}],"stateMutability":"view"},{"type":"function","name":"userRewardAmounts","inputs":[{"name":"","type":"address","internalType":"address"},{"name":"","type":"address","internalType":"address"}],"outputs":[{"name":"","type":"uint256","internalType":"uint256"}],"stateMutability":"view"},{"type":"function","name":"withdrawERC20","inputs":[{"name":"tokenAddress","type":"address","internalType":"contract IERC20"},{"name":"withdrawAddress","type":"address","internalType":"address"},{"name":"amount","type":"uint256","internalType":"uint256"}],"outputs":[{"name":"","type":"bool","internalType":"bool"}],"stateMutability":"nonpayable"},{"type":"function","name":"withdrawETH","inputs":[{"name":"withdrawAddress","type":"address","internalType":"address payable"},{"name":"amount","type":"uint256","internalType":"uint256"}],"outputs":[{"name":"","type":"bool","internalType":"bool"}],"stateMutability":"payable"},{"type":"function","name":"withdrawManager","inputs":[],"outputs":[{"name":"","type":"address","internalType":"address"}],"stateMutability":"view"},{"type":"event","name":"DepositToken","inputs":[{"name":"tokenAddress","type":"address","indexed":true,"internalType":"address"},{"name":"sender","type":"address","indexed":true,"internalType":"address"},{"name":"amount","type":"uint256","indexed":false,"internalType":"uint256"}],"anonymous":false},{"type":"event","name":"GrantRewardTokenAmount","inputs":[{"name":"tokenAddress","type":"address","indexed":true,"internalType":"address"},{"name":"granter","type":"address","indexed":false,"internalType":"address"},{"name":"amount","type":"uint256","indexed":false,"internalType":"uint256"}],"anonymous":false},{"type":"event","name":"Initialized","inputs":[{"name":"version","type":"uint64","indexed":false,"internalType":"uint64"}],"anonymous":false},{"type":"event","name":"OwnershipTransferred","inputs":[{"name":"previousOwner","type":"address","indexed":true,"internalType":"address"},{"name":"newOwner","type":"address","indexed":true,"internalType":"address"}],"anonymous":false},{"type":"event","name":"RoleAdminChanged","inputs":[{"name":"role","type":"bytes32","indexed":true,"internalType":"bytes32"},{"name":"previousAdminRole","type":"bytes32","indexed":true,"internalType":"bytes32"},{"name":"newAdminRole","type":"bytes32","indexed":true,"internalType":"bytes32"}],"anonymous":false},{"type":"event","name":"RoleGranted","inputs":[{"name":"role","type":"bytes32","indexed":true,"internalType":"bytes32"},{"name":"account","type":"address","indexed":true,"internalType":"address"},{"name":"sender","type":"address","indexed":true,"internalType":"address"}],"anonymous":false},{"type":"event","name":"RoleRevoked","inputs":[{"name":"role","type":"bytes32","indexed":true,"internalType":"bytes32"},{"name":"account","type":"address","indexed":true,"internalType":"address"},{"name":"sender","type":"address","indexed":true,"internalType":"address"}],"anonymous":false},{"type":"event","name":"WithdrawManagerUpdate","inputs":[{"name":"withdrawManager","type":"address","indexed":true,"internalType":"address"}],"anonymous":false},{"type":"event","name":"WithdrawToken","inputs":[{"name":"tokenAddress","type":"address","indexed":true,"internalType":"address"},{"name":"sender","type":"address","indexed":false,"internalType":"address"},{"name":"withdrawAddress","type":"address","indexed":false,"internalType":"address"},{"name":"amount","type":"uint256","indexed":false,"internalType":"uint256"}],"anonymous":false},{"type":"error","name":"AccessControlBadConfirmation","inputs":[]},{"type":"error","name":"AccessControlUnauthorizedAccount","inputs":[{"name":"account","type":"address","internalType":"address"},{"name":"neededRole","type":"bytes32","internalType":"bytes32"}]},{"type":"error","name":"AddressEmptyCode","inputs":[{"name":"target","type":"address","internalType":"address"}]},{"type":"error","name":"AddressInsufficientBalance","inputs":[{"name":"account","type":"address","internalType":"address"}]},{"type":"error","name":"FailedInnerCall","inputs":[]},{"type":"error","name":"InvalidInitialization","inputs":[]},{"type":"error","name":"IsZeroAddress","inputs":[]},{"type":"error","name":"NotInitializing","inputs":[]},{"type":"error","name":"OwnableInvalidOwner","inputs":[{"name":"owner","type":"address","internalType":"address"}]},{"type":"error","name":"OwnableUnauthorizedAccount","inputs":[{"name":"account","type":"address","internalType":"address"}]},{"type":"error","name":"ReentrancyGuardReentrantCall","inputs":[]},{"type":"error","name":"SafeERC20FailedOperation","inputs":[{"name":"token","type":"address","internalType":"address"}]}],"bytecode":{"object":"0x6080806040523460b4577ff0c57e16840df040f15088dc2f81fe391c3923bec73e23a9662efc9c229c6a009081549060ff8260401c1660a557506001600160401b036002600160401b0319828216016061575b60405161162290816100b98239f35b6001600160401b031990911681179091556040519081527fc7f505b2f371ae2175ee4913f4499e1f2633a7b5936321eed1cdaeb6115181d290602090a15f80806052565b63f92ee8a960e01b8152600490fd5b5f80fdfe6080604090808252600480361015610029575b505050361561001f575f80fd5b610027611222565b005b5f3560e01c91826301ffc9a714610e945750816303186d2214610e6d5781630dbe671f14610e4f5781630ec08b0014610e0f57816317e3e2e814610da95781631e4bd42c14610c9457816323ecdbee14610bd2578163248a9ca314610b9c578163254c5d8714610b525781632f2ff15d14610b2a57816332f289cf1461096e57816336568abe1461092a578163410c9f9a1461080a57816341398b15146107dc57816344004cc1146106a25781634782f77914610664578163523fba7f1461062d578163715018a6146105c65781638da5cb5b1461059257816391d148541461054257816397feb92614610492578163a217fddf14610478578163a2672ad7146103de578163c0c53b8b14610272578163c37220ea14610230578163d547741f146101ea57508063ec3e9da5146101c2578063f2fde38b146101995763f6326fb314610176578080610012565b5f3660031901126101955760209061018c611222565b90519015158152f35b5f80fd5b34610195576020366003190112610195576100276101b5610f2f565b6101bd6112c5565b6111b1565b5034610195575f3660031901126101955760015490516001600160a01b039091168152602090f35b8234610195578060031936011261019557610027913561022b600161020d610f45565b93835f525f805160206115cd8339815191526020525f200154611340565b61140f565b82346101955760203660031901126101955760209161024d610f2f565b335f9081529184528282206001600160a01b0390911682528352819020549051908152f35b9050346101955760603660031901126101955761028d610f2f565b90610296610f45565b6044356001600160a01b038181169291839003610195577ff0c57e16840df040f15088dc2f81fe391c3923bec73e23a9662efc9c229c6a0094855460ff81891c16159567ffffffffffffffff8216801590816103d6575b60011490816103cc575b1590816103c3575b506103b5575067ffffffffffffffff1981166001178755610332919086610396575b5061032a611508565b6101bd611508565b6bffffffffffffffffffffffff60a01b9116815f5416175f55600154161760015561035957005b805468ff00000000000000001916905551600181527fc7f505b2f371ae2175ee4913f4499e1f2633a7b5936321eed1cdaeb6115181d290602090a1005b68ffffffffffffffffff1916680100000000000000011787555f610321565b885163f92ee8a960e01b8152fd5b9050155f6102ff565b303b1591506102f7565b8891506102ed565b8234610195576020366003190112610195576103f8610f2f565b5f546001600160a01b03939184916104139083163314610ff1565b1691821561046b5750600254906801000000000000000082101561045857508060016104429201600255610ee6565b909283549160031b92831b921b19161790555f80f35b604190634e487b7160e01b5f525260245ffd5b51631326d6d560e01b8152fd5b8234610195575f36600319011261019557602090515f8152f35b82346101955780600319360112610195576020906104ae610f2f565b81516323b872dd60e01b8482015233602480830191909152306044830152356064808301829052825291906104ee906104e8608482610f7c565b8261148e565b6001600160a01b03165f81815260038552839020805461050f908490611049565b905582519182527f4b3f81827ede20c81afbf1bb77b954afcdcae24d391d99042310cb1d9210dd57843393a35160018152f35b823461019557806003193601126101955760209161055e610f45565b90355f525f805160206115cd8339815191528352815f209060018060a01b03165f52825260ff815f20541690519015158152f35b8234610195575f366003190112610195575f805160206115ad8339815191525490516001600160a01b039091168152602090f35b34610195575f366003190112610195576105de6112c5565b5f805160206115ad83398151915280546001600160a01b031981169091555f906001600160a01b03167f8be0079c531659141344cd1fd0a4f28419497f9722a3daafe3b4186f6b6457e08280a3005b8234610195576020366003190112610195576020906001600160a01b03610652610f2f565b165f5260038252805f20549051908152f35b9050816003193601126101955735906001600160a01b0380831683036101955760209261069961018c92600154163314611056565b602435906110a2565b8234610195576060366003190112610195576106bc610f2f565b6106c4610f45565b6044359060018060a01b036106de81600154163314611056565b831692835f52600360205282855f20541061076557602095509061073c83827f9ca7c1e047552a8048d924a5a8d3c150eb861086a72a9100e5f19d1176c1b7469594875f5260038a52885f20610735848254610f5b565b90556112fd565b84513381526001600160a01b039190911660208201526040810191909152606090a25160018152f35b845162461bcd60e51b8152602081880152604560248201527f54726561737572654d616e6167657220776974686472617745524332303a204960448201527f6e73756666696369656e7420746f6b656e2062616c616e636520696e20636f6e6064820152641d1c9858dd60da1b608482015260a490fd5b8234610195575f366003190112610195576020905173eeeeeeeeeeeeeeeeeeeeeeeeeeeeeeeeeeeeeeee8152f35b90503461019557606036600319011261019557610825610f2f565b9061082e610f45565b6044359160018060a01b038094610849825f54163314610ff1565b16938415158061091f575b156108c657946108c1917f10621458f3ad2a9cfcb87c216122570629e44079d6af4d717035eb55d2c60424959684165f52602052805f20865f52602052805f2061089f858254611049565b9055516001600160a01b03909216825260208201929092529081906040820190565b0390a2005b855162461bcd60e51b8152602081840152602d60248201527f54726561737572654d616e61676572206772616e74526577617264733a20696e60448201526c76616c6964206164647265737360981b6064820152608490fd5b508083161515610854565b8234610195578060031936011261019557610943610f45565b90336001600160a01b0383160361095f5750610027913561140f565b5163334bd91960e11b81529050fd5b90503461019557602080600319360112610195576001600160a01b03610992610f2f565b168015610acf57335f52828252835f20815f528252835f2054908115610a7557335f52838352845f20815f5283525f8581205560038352845f206109d7838254610f5b565b905573eeeeeeeeeeeeeeeeeeeeeeeeeeeeeeeeeeeeeeee8103610a6557505f80808093335af1610a05610fb2565b5015610a0d57005b608492519162461bcd60e51b8352820152602f60248201527f54726561737572654d616e6167657220636c61696d546f6b656e3a204554482060448201526e1d1c985b9cd9995c8819985a5b1959608a1b6064820152fd5b91509150610027925033906112fd565b5050608492519162461bcd60e51b8352820152602f60248201527f54726561737572654d616e6167657220636c61696d546f6b656e3a206e6f207260448201526e657761726420617661696c61626c6560881b6064820152fd5b50608492519162461bcd60e51b8352820152603160248201527f54726561737572654d616e6167657220636c61696d546f6b656e3a20696e76616044820152706c696420746f6b656e206164647265737360781b6064820152fd5b82346101955780600319360112610195576100279135610b4d600161020d610f45565b61138c565b8234610195578060031936011261019557602091610b6e610f2f565b610b76610f45565b6001600160a01b039182165f908152928552838320911682528352819020549051908152f35b823461019557602036600319011261019557602091355f525f805160206115cd83398151915282526001815f2001549051908152f35b8234610195575f3660031901126101955780519081600254908181526020809101809260025f527f405787fa12a823e0f2b7631cc41b3ba8828b3321ca811111fa75cd3aa3bb5ace905f5b818110610c775750505084610c33910385610f7c565b825181815293518185018190528493840192915f5b828110610c5757505050500390f35b83516001600160a01b031685528695509381019392810192600101610c48565b82546001600160a01b031684529284019260019283019201610c1d565b905034610195575f366003190112610195575f5b60025481101561002757610cbb81610ee6565b90549060039160018060a01b0391831b1c1690335f52602091848352855f20815f528352855f20549182610cf6575b50505050600101610ca8565b335f52858452865f20825f5284525f878120558352855f20610d19838254610f5b565b905573eeeeeeeeeeeeeeeeeeeeeeeeeeeeeeeeeeeeeeee8103610d9357505f80808093335af1610d47610fb2565b5015610d5b57506001905b905f8080610cea565b9050606492519162461bcd60e51b83528201526013602482015272115512081d1c985b9cd9995c8819985a5b1959606a1b6044820152fd5b600193925090610da49133906112fd565b610d52565b3461019557602036600319011261019557610dc2610f2f565b610dca6112c5565b600180546001600160a01b0319166001600160a01b039290921691821790557f799e16a314d482c87bc47fd219011aaf33f4f9c7e302be5d7a0af286a52998b95f80a2005b90503461019557602036600319011261019557359060025482101561019557610e39602092610ee6565b905491519160018060a01b039160031b1c168152f35b8234610195575f366003190112610195576020906005549051908152f35b8234610195575f366003190112610195575f5490516001600160a01b039091168152602090f35b903461019557602036600319011261019557359063ffffffff60e01b821680920361019557602091637965db0b60e01b8114908115610ed5575b5015158152f35b6301ffc9a760e01b14905083610ece565b600254811015610f1b5760025f527f405787fa12a823e0f2b7631cc41b3ba8828b3321ca811111fa75cd3aa3bb5ace01905f90565b634e487b7160e01b5f52603260045260245ffd5b600435906001600160a01b038216820361019557565b602435906001600160a01b038216820361019557565b91908203918211610f6857565b634e487b7160e01b5f52601160045260245ffd5b90601f8019910116810190811067ffffffffffffffff821117610f9e57604052565b634e487b7160e01b5f52604160045260245ffd5b3d15610fec573d9067ffffffffffffffff8211610f9e5760405191610fe1601f8201601f191660200184610f7c565b82523d5f602084013e565b606090565b15610ff857565b60405162461bcd60e51b815260206004820152602360248201527f54726561737572654d616e616765722e6f6e6c7954726561737572654d616e6160448201526233b2b960e91b6064820152608490fd5b91908201809211610f6857565b1561105d57565b60405162461bcd60e51b815260206004820152601e60248201527f54726561737572654d616e616765722e6f6e6c795769746864726177657200006044820152606490fd5b9080471061113c5773eeeeeeeeeeeeeeeeeeeeeeeeeeeeeeeeeeeeeeee91825f52600360205260405f206110d7838254610f5b565b90556001600160a01b0316905f80808084865af16110f3610fb2565b5015611135577f9ca7c1e047552a8048d924a5a8d3c150eb861086a72a9100e5f19d1176c1b746916060916040519133835260208301526040820152a2600190565b5050505f90565b60405162461bcd60e51b815260206004820152604160248201527f54726561737572654d616e616765722077697468647261774554483a20696e7360448201527f756666696369656e74204554482062616c616e636520696e20636f6e747261636064820152601d60fa1b608482015260a490fd5b6001600160a01b0390811690811561120a575f805160206115ad83398151915280546001600160a01b031981168417909155167f8be0079c531659141344cd1fd0a4f28419497f9722a3daafe3b4186f6b6457e05f80a3565b604051631e4fbdf760e01b81525f6004820152602490fd5b7f9b779b17422d0df92223018b32b4d1fa46e071723d6817e2486d003becc55f009060028254146112b3576002825573eeeeeeeeeeeeeeeeeeeeeeeeeeeeeeeeeeeeeeee805f52600360205260405f2061127d348254611049565b9055604051903482527f4b3f81827ede20c81afbf1bb77b954afcdcae24d391d99042310cb1d9210dd5760203393a36001809255565b604051633ee5aeb560e01b8152600490fd5b5f805160206115ad833981519152546001600160a01b031633036112e557565b60405163118cdaa760e01b8152336004820152602490fd5b60405163a9059cbb60e01b60208201526001600160a01b0392909216602483015260448083019390935291815261133e91611339606483610f7c565b61148e565b565b805f525f805160206115cd83398151915260205260405f20335f5260205260ff60405f2054161561136e5750565b6044906040519063e2517d3f60e01b82523360048301526024820152fd5b90815f525f805160206115cd8339815191528060205260405f209160018060a01b031691825f5260205260ff60405f205416155f1461113557825f5260205260405f20815f5260205260405f20600160ff1982541617905533917f2f8788117e7eff1d82e926ec794901d17c78024a50270940304540a733656f0d5f80a4600190565b90815f525f805160206115cd8339815191528060205260405f209160018060a01b031691825f5260205260ff60405f2054165f1461113557825f5260205260405f20815f5260205260405f2060ff19815416905533917ff6391f5c32d9c69d2a47ea670b442974b53935d1edc7fd64eb21e047a839171b5f80a4600190565b5f806114b69260018060a01b03169360208151910182865af16114af610fb2565b9083611549565b80519081151591826114e4575b50506114cc5750565b60249060405190635274afe760e01b82526004820152fd5b81925090602091810103126101955760200151801590811503610195575f806114c3565b60ff7ff0c57e16840df040f15088dc2f81fe391c3923bec73e23a9662efc9c229c6a005460401c161561153757565b604051631afcd79f60e31b8152600490fd5b90611570575080511561155e57805190602001fd5b604051630a12f52160e11b8152600490fd5b815115806115a3575b611581575090565b604051639996b31560e01b81526001600160a01b039091166004820152602490fd5b50803b1561157956fe9016d09d72d40fdae2fd8ceac6b6234c7706214fd39c1cd1e609a0528c19930002dd7bc7dec4dceedda775e58dd541e08a116c6c53815c0bd028192f7b626800a26469706673582212201270c9d2354aae0057b80e6aac9c2f97f6c286603aa19cf123218a51afbf7eef64736f6c63430008190033","linkReferences":{}},"methodIdentifiers":{"DEFAULT_ADMIN_ROLE()":"a217fddf","a()":"0dbe671f","claimAllTokens()":"1e4bd42c","claimToken(address)":"32f289cf","depositERC20(address,uint256)":"97feb926","depositETH()":"f6326fb3","ethAddress()":"41398b15","getRoleAdmin(bytes32)":"248a9ca3","getTokenWhiteList()":"23ecdbee","grantRewards(address,address,uint256)":"410c9f9a","grantRole(bytes32,address)":"2f2ff15d","hasRole(bytes32,address)":"91d14854","initialize(address,address,address)":"c0c53b8b","owner()":"8da5cb5b","queryReward(address)":"c37220ea","renounceOwnership()":"715018a6","renounceRole(bytes32,address)":"36568abe","revokeRole(bytes32,address)":"d547741f","setTokenWhiteList(address)":"a2672ad7","setWithdrawManager(address)":"17e3e2e8","supportsInterface(bytes4)":"01ffc9a7","tokenBalances(address)":"523fba7f","tokenWhiteList(uint256)":"0ec08b00","transferOwnership(address)":"f2fde38b","treasureManager()":"03186d22","userRewardAmounts(address,address)":"254c5d87","withdrawERC20(address,address,uint256)":"44004cc1","withdrawETH(address,uint256)":"4782f779","withdrawManager()":"ec3e9da5"},"storageLayout":{"storage":[{"astId":50572,"contract":"src/TreasureManager.sol:TreasureManager","label":"treasureManager","offset":0,"slot":"0","type":"t_address"},{"astId":50574,"contract":"src/TreasureManager.sol:TreasureManager","label":"withdrawManager","offset":0,"slot":"1","type":"t_address"},{"astId":50577,"contract":"src/TreasureManager.sol:TreasureManager","label":"tokenWhiteList","offset":0,"slot":"2","type":"t_array(t_address)dyn_storage"},{"astId":50581,"contract":"src/TreasureManager.sol:TreasureManager","label":"tokenBalances","offset":0,"slot":"3","type":"t_mapping(t_address,t_uint256)"},{"astId":50587,"contract":"src/TreasureManager.sol:TreasureManager","label":"userRewardAmounts","offset":0,"slot":"4","type":"t_mapping(t_address,t_mapping(t_address,t_uint256))"},{"astId":50589,"contract":"src/TreasureManager.sol:TreasureManager","label":"a","offset":0,"slot":"5","type":"t_uint256"}],"types":{"t_address":{"encoding":"inplace","label":"address","numberOfBytes":"20"},"t_array(t_address)dyn_storage":{"encoding":"dynamic_array","label":"address[]","numberOfBytes":"32","base":"t_address"},"t_mapping(t_address,t_mapping(t_address,t_uint256))":{"encoding":"mapping","key":"t_address","label":"mapping(address => mapping(address => uint256))","numberOfBytes":"32","value":"t_mapping(t_address,t_uint256)"},"t_mapping(t_address,t_uint256)":{"encoding":"mapping","key":"t_address","label":"mapping(address => uint256)","numberOfBytes":"32","value":"t_uint256"},"t_uint256":{"encoding":"inplace","label":"uint256","numberOfBytes":"32"}}},"id":52}